:020000040000FA
:102000002DEF3FF0FFFFFFFFFFFFFFFFFFFFFFFF91
:10201000FFFFFFFFFFFFFFFFFFFFFFFFFFFFFFFFD0
:10202000FFFFFFFFFFFFFFFFFFFFFFFFFFFFFFFFC0
:10203000FFFFFFFFFFFFFFFFFFFFFFFFFFFFFFFFB0
:107E4000FFFFFFFFFFFFFFFFFFFFFFFFFFFFFFFF42
:107E5000FFFFFFFFFFFFFFFFFFFF036A000146EF89
:107E60003FF060EC3FF036EC3FF01200700ED36E46
:107E7000000ED26E800E9B6E000EB56ED2AE43EF3A
:107E80003FF045EF3FF03EEF3FF0120031EC3FF0A6
:107E90000D0E036E1F0E026E710E016E1E0EE82E89
:107EA000FED7012EFCD7022EFAD700D003C08AFFDE
:107EB000D89003340334036E4AEF3FF000EF10F024
:107EC000000E8D6E000E8C6E000E896E000E8A6E96
:107ED000000E8B6E070E966E9268000E936EC70EA4
:107EE000946E95680F015E69C40E5D6F000E5C6F45
:107EF000070E5F6F2F0E5B6F000E856EF18E120006
:020000040030CA
:0400000003285F3C36
:0200060081FF78
:020000040020DA
:08000000010B060D00000000D9
:00000001FF
