:020000040000FA
:102000005CEF3FF0FFFFFFFFFFFFFFFFFFFFFFFF62
:10201000FFFFFFFFFFFFFFFFFFFFFFFFFFFFFFFFD0
:107EA000FFFFFFFFFFFFFFFFFFFFFFFFFFFFFFFFE2
:107EB000FFFFFFFFFFFFFFFF000166EF3FF00F0E28
:107EC000C112000E8A6E000E936E12005FEC3FF03E
:107ED0000D0E036E1F0E026E710E016E1E0EE82E49
:107EE000FED7012EFCD7022EFAD700D003C08AFF9E
:107EF000D89003340334036E6AEF3FF000EF10F0C4
:020000040030CA
:08000000000E191EFF8181FFB3
:020000040020DA
:080000000505030B00000000E0
:00000001FF
