:020000040000FA
:102000005FEF3FF0FFFFFFFFFFFFFFFFFFFFFFFF5F
:10201000FFFFFFFFFFFFFFFFFFFFFFFFFFFFFFFFD0
:107EA000FFFFFFFFFFFFFFFFFFFFFFFFFFFFFFFFE2
:107EB000FFFFFFFFFFFFFFFFFFFFFFFFFFFF0001CF
:107EC00062EF3FF00F0EC112000E936E0D0E036EA7
:107ED0000D0E8A6E1F0E026E710E016E1E0EE82EC2
:107EE000FED7012EFCD7022EFAD700D003C08AFF9E
:107EF000D89003340334036E6AEF3FF000EF10F0C4
:020000040030CA
:08000000000E191EFF8181FFB3
:020000040020DA
:0800000005080B0500000000DB
:00000001FF
